:1000000000400020110600005106000053060000C9
:1000100000000000000000000000000000000000E0
:100020000000000000000000000000005506000075
:100030000000000000000000570600005906000004
:100040005B0600005B0600005B0600005B0600002C
:100050005B060000000000005B0600005B0600007D
:100060005B0600005B0600005B0600005B0600000C
:100070005B0600005B0600005B0600005B060000FC
:100080005B0600005B0600005B0600005B060000EC
:100090005B0600005B0600005B0600005B060000DC
:1000A0005B0600005B06000000000000000000008E
:1000B0000000000000000000000000000000000040
:1000C0000448054B10B5834203D0044B002B00D0ED
:1000D000984710BD440400204404002000000000A4
:1000E00006480749091A8B10C90FC91810B54910DD
:1000F00003D0044B002B00D0984710BD44040020CF
:10010000440400200000000010B5074C2378002BA9
:1001100009D1FFF7D5FF054B002B02D0044800E0C2
:1001200000BF0123237010BD440400200000000024
:1001300088090000054B10B5002B03D00449054881
:1001400000E000BFFFF7CCFF10BDC046000000007C
:100150004804002088090000402292029A1A924620
:100160007047C046154B002B00D1114B9D46FFF741
:10017000F3FF00218B460F461148124A121A00F075
:10018000BBFA0C4B002B00D098470B4B002B00D038
:1001900098470020002104000D000B4800F05EFA93
:1001A00000F088FA2000290000F010F800F05EFA54
:1001B00000000800000000000000000000400020D7
:1001C00044040020C80400208D06000080B500AF64
:1001D00000F012F800F026F90021002000F084F968
:1001E0000421042000F080F90021002000F092F9A1
:1001F00000F0A6F9FCE7000080B500AF194AA02383
:10020000DB000021D150A023DA05EC23DB00012123
:10021000D150A023DB05144A002199501149A12394
:10022000DB0001225242CA500E49A223DB00012208
:100230005242CA500B4A0D4B1821D150094A0C4B5F
:100240001921D150074A0B4B0B49D150054AA02325
:10025000DB000421D150034B01221A60C046BD4689
:1002600080BDC04600200040640700000C0500006F
:1002700014050000240500000050270080B500AFE1
:1002800000F036F8031E06D0134B144A1A60144BC4
:10029000802212021A6000F06BF8031E05D0802342
:1002A000DA05C123DB000121D15000F087F8031EDD
:1002B0000ED00C4B1B68012B07D00A4B0A4A1A6060
:1002C000C046084B1B68012BFBD1084BC0221A60AB
:1002D000C046BD4680BDC04604050040DFFF07C0E4
:1002E000186C004000EC06407593000014EC0640CA
:1002F00080B500AF1A4B1B68FF221340012B2AD197
:10030000184B1B680F22134025D1174B1B68F02296
:10031000134006D1154B1B68F022134001D1012375
:100320001AE0114B1B68F0221340102B06D10F4B23
:100330001B68F022134001D101230DE00A4B1B681A
:10034000F0221340302B06D1084B1B68F0221340DB
:1003500001D1012300E000231800BD4680BDC04646
:10036000E00F00F0E40F00F0E80F00F0EC0F00F0F9
:1003700080B500AF0D4B1B68FF221340012B11D13C
:100380000B4B1B680F2213400CD10A4B1B68F02249
:100390001340402B06D1084B1B68F022134001D1BB
:1003A000012300E000231800BD4680BDE00F00F0EF
:1003B000E40F00F0E80F00F0EC0F00F080B500AFA4
:1003C000144B1B68FF221340012B1ED1124B1B68DC
:1003D0000F22134019D1114B1B68F0221340A02BA0
:1003E00006D10F4B1B68F022134001D101230DE011
:1003F0000A4B1B68F0221340D02B06D1084B1B6818
:10040000F022134001D1012300E000231800BD4673
:1004100080BDC046E00F00F0E40F00F0E80F00F0F0
:10042000EC0F00F080B584B000AF0D23FB601BE043
:100430000122FB689A401100A023DA05A323DB0008
:10044000D150A023DB05FA68C132FF3292000121AE
:10045000D1500122FB689A40A023DB051100204AFD
:100460009950FB680133FB600D230333FA689A420D
:10047000DED30423BB601BE00122BB689A4011005D
:10048000A023DA05A323DB00D150A023DB05BA6843
:10049000C132FF3292000121D1500122BB689A4043
:1004A000A023DB0511000E4A9950BB680133BB60E5
:1004B00004230933BA689A42DED300237B6007E045
:1004C000084B7A6892000021D1507B6801337B6031
:1004D0007B681A2BF4D9C046C046BD4604B080BD27
:1004E0000C0500006004002080B582B000AF786089
:1004F00039603A6813009B009A187B68D218044B45
:1005000092000121D150C046BD4602B080BDC04618
:100510006004002080B582B000AF786039603A682E
:1005200013009B009A187B68D218044B920000219C
:10053000D150C046BD4602B080BDC0466004002018
:1005400080B582B000AF04237B600BE001227B68A2
:100550009A401100A023DA05A123DB00D1507B686B
:1005600001337B60092304337A689A42EED3244B2B
:100570001B6801229A40A023DB051100214A9950F3
:100580001F4B1B685A1C1E4B1A601D4B1B68102BFF
:1005900002D11B4B0D221A60194B1B6801229A4095
:1005A0001100A023DA05A123DB00D15004233B6016
:1005B0001CE0134B1B680D3B1A003B68181F1249C7
:1005C0001300DB009B181B189B005A580F4B92001E
:1005D000D358002B07D001223B689A40A023DB05AB
:1005E0001100084A99503B6801333B6009230433EA
:1005F0003A689A42DDD3C046C046BD4602B080BDCF
:10060000000000200C050000180900006004002014
:1006100003210A4802680A430260094802680A4343
:1006200002600849084A094B9B1A03DD043BC8587D
:10063000D050FBDCFFF722FEFFF794FD24050040BD
:1006400054050040940900000000002044040020EC
:10065000FEE7FEE7FEE7FEE7FEE7FEE710B5010076
:1006600000230022002000F09BF810BD10B50021EF
:10067000040000F0D9F8044B1868C36B002B00D0BD
:100680009847200000F03AF98409000070B5074D42
:10069000074C641BA41005D0013CA300EB589847FD
:1006A000002CF9D100F032F970BDC04640040020A2
:1006B0004404002070B50C4D0C4E761BB61005D0CE
:1006C000002408CD01349847A642FAD100F018F969
:1006D000074D084E761BB61005D0002408CD013416
:1006E0009847A642FAD170BD380400203804002093
:1006F0003804002040040020F0B5050083074AD0EC
:10070000541E002A44D0CEB20300032202E0013579
:10071000013C3DD301332E701342F8D1032C2FD965
:10072000FF220A40150215432A0415430F2C35D920
:100730002700103F3F093E01B4461E001A00103644
:100740006644156055609560D5601032B242F8D1AC
:100750000F260C2201373F012640DB1937002242C9
:1007600017D03E1FB608B400A4461A001C1D6444EE
:1007700020C2A242FCD103240136B6009B193C40A2
:10078000002C05D0C9B21C19197001339C42FBD151
:10079000F0BD3400F4E714000300BFE72700E0E7F2
:1007A000F0B5C64600B51F4C82B024680194A4245D
:1007B000019D64002D59002D2BD06C681F2C2EDC60
:1007C000002809D10020631C0234A4006B60615131
:1007D00002B004BC9046F0BD8827A600AE19F251C5
:1007E0000137FF37BC460122AC446746A2403F6850
:1007F000904617436246176084277F00F351022812
:10080000E0D12B0040468D33FF331A681043186047
:10081000D8E7019D019E4D35FF353551CDE70120CB
:100820004042D5E784090000F0B55746DE464E4603
:1008300045462B4BE0B51B680F009A4683B00190EC
:10084000A42352465B00D658002E32D07468651E31
:100850002FD4C422520091460134A4003419B1446B
:10086000984602E0043C013D23D3002F04D08023AE
:100870005B00E358BB42F5D173682268013BAB4291
:1008800029D000232360002AECD0736849469B4698
:100890000123AB400968194212D1904773685B4548
:1008A000CED1534642469B58B342C9D1043C013D88
:1008B000DBD203B03CBC90469946A246AB46F0BDA5
:1008C000300080218D30FF3000686158184204D11B
:1008D00001989047E2E77560D5E708009047DDE7AB
:1008E00084090000034B10B5002B02D00248FFF72B
:1008F000B5FE10BD000000008D060000FEE7C046FA
:10090000F8B5C046F8BC08BC9E467047F8B5C0466E
:10091000F8BC08BC9E4670470000000002000000C2
:10092000040000001300000012000000110000008D
:10093000100000000F0000000B0000000E0000007F
:100940000A0000000C00000001000000030000008D
:1009500017000000150000001A0000001A00000037
:100960001600000018000000140000000500000040
:100970000600000007000000080000000900000059
:0C0980000D00000010000020000000002E
:08098C00CCF7FF7F0100000021
:100994000E00000000000000100000200000000015
:1009A40000000000FC02002064030020CC030020AF
:1009B4000000000000000000000000000000000033
:1009C4000000000000000000000000000000000023
:1009D4000000000000000000000000000000000013
:1009E4000000000000000000000000000000000003
:1009F40000000000000000000000000000000000F3
:100A040000000000000000000000000000000000E2
:100A140000000000000000000000000000000000D2
:100A240000000000000000000000000000000000C2
:100A340000000000000000000000000000000000B2
:100A440000000000000000000100000000000000A1
:100A54000E33CDAB34126DE6ECDE05000B00000066
:100A64000000000000000000000000000000000082
:100A74000000000000000000000000000000000072
:100A84000000000000000000000000000000000062
:100A94000000000000000000000000000000000052
:100DC4000000000000000000E508000035010000FC
:040DD4000901000011
:0400000300000611E2
:00000001FF
